{
  "_format": "hh-sol-artifact-1",
  "contractName": "SimpleStorage",
  "sourceName": "contracts/SimpleStorage.sol",
  "abi": [
    {
      "inputs": [
        {
          "internalType": "string",
          "name": "_name",
          "type": "string"
        }
      ],
      "name": "getFavoriteNumber",
      "outputs": [
        {
          "internalType": "uint256",
          "name": "",
          "type": "uint256"
        }
      ],
      "stateMutability": "view",
      "type": "function"
    },
    {
      "inputs": [],
      "name": "s_favourite_number",
      "outputs": [
        {
          "internalType": "uint256",
          "name": "",
          "type": "uint256"
        }
      ],
      "stateMutability": "view",
      "type": "function"
    },
    {
      "inputs": [
        {
          "internalType": "string",
          "name": "name",
          "type": "string"
        }
      ],
      "name": "s_nameToFavNo",
      "outputs": [
        {
          "internalType": "uint256",
          "name": "fav_no",
          "type": "uint256"
        }
      ],
      "stateMutability": "view",
      "type": "function"
    },
    {
      "inputs": [
        {
          "internalType": "string",
          "name": "_name",
          "type": "string"
        },
        {
          "internalType": "uint256",
          "name": "_favNo",
          "type": "uint256"
        }
      ],
      "name": "store",
      "outputs": [],
      "stateMutability": "nonpayable",
      "type": "function"
    }
  ],
  "bytecode": "0x6080604052600160005534801561001557600080fd5b5061048b806100256000396000f3fe608060405234801561001057600080fd5b506004361061004c5760003560e01c80630fcec94c146100515780637408a1d714610081578063790983981461009d578063f336daa0146100cd575b600080fd5b61006b600480360381019061006691906102c8565b6100eb565b604051610078919061032a565b60405180910390f35b61009b60048036038101906100969190610371565b610119565b005b6100b760048036038101906100b291906102c8565b610140565b6040516100c4919061032a565b60405180910390f35b6100d5610168565b6040516100e2919061032a565b60405180910390f35b6001818051602081018201805184825260208301602085012081835280955050505050506000915090505481565b8060018360405161012a919061043e565b9081526020016040518091039020819055505050565b6000600182604051610152919061043e565b9081526020016040518091039020549050919050565b60005481565b6000604051905090565b600080fd5b600080fd5b600080fd5b600080fd5b6000601f19601f8301169050919050565b7f4e487b7100000000000000000000000000000000000000000000000000000000600052604160045260246000fd5b6101d58261018c565b810181811067ffffffffffffffff821117156101f4576101f361019d565b5b80604052505050565b600061020761016e565b905061021382826101cc565b919050565b600067ffffffffffffffff8211156102335761023261019d565b5b61023c8261018c565b9050602081019050919050565b82818337600083830152505050565b600061026b61026684610218565b6101fd565b90508281526020810184848401111561028757610286610187565b5b610292848285610249565b509392505050565b600082601f8301126102af576102ae610182565b5b81356102bf848260208601610258565b91505092915050565b6000602082840312156102de576102dd610178565b5b600082013567ffffffffffffffff8111156102fc576102fb61017d565b5b6103088482850161029a565b91505092915050565b6000819050919050565b61032481610311565b82525050565b600060208201905061033f600083018461031b565b92915050565b61034e81610311565b811461035957600080fd5b50565b60008135905061036b81610345565b92915050565b6000806040838503121561038857610387610178565b5b600083013567ffffffffffffffff8111156103a6576103a561017d565b5b6103b28582860161029a565b92505060206103c38582860161035c565b9150509250929050565b600081519050919050565b600081905092915050565b60005b838110156104015780820151818401526020810190506103e6565b60008484015250505050565b6000610418826103cd565b61042281856103d8565b93506104328185602086016103e3565b80840191505092915050565b600061044a828461040d565b91508190509291505056fea26469706673582212206e633e6a3c9857d5cb1710a00287e7dfeb292edba6d0981b512c64ecc2034fbc64736f6c63430008180033",
  "linkReferences": {},
  "deployedLinkReferences": {}
}